20120221-13:54:21.947 : 8=FIX.4.2|9=88|35=A|34=1|49=pro5791test|52=20120221-13:54:21.947|56=CNX|554=fxcm1234|98=0|108=30|141=Y|10=083|
20120221-13:57:21.423 : 8=FIX.4.2|9=88|35=A|34=1|49=pro5791test|52=20120221-13:57:21.422|56=CNX|554=fxcm1234|98=0|108=30|141=Y|10=074|
20120221-14:18:08.484 : 8=FIX.4.2|9=88|35=A|34=1|49=pro5791test|52=20120221-14:18:08.483|56=CNX|554=fxcm1234|98=0|108=30|141=Y|10=084|
20120221-15:49:39.037 : 8=FIX.4.2|9=88|35=A|34=1|49=pro5791test|52=20120221-15:49:39.037|56=CNX|554=fxcm1234|98=0|108=30|141=Y|10=088|
20120221-15:49:39.837 : 8=FIX.4.2|9=84|35=5|34=1|49=CNX|52=20120221-15:49:39.787|56=pro5791test|58=authentication failure.|10=123|
20120221-15:49:39.838 : 8=FIX.4.2|9=57|35=5|34=2|49=pro5791test|52=20120221-15:49:39.838|56=CNX|10=184|
20120221-15:50:08.093 : 8=FIX.4.2|9=88|35=A|34=1|49=pro5791test|52=20120221-15:50:08.093|56=CNX|554=Test1234|98=0|108=30|141=Y|10=064|
20120221-15:50:08.970 : 8=FIX.4.2|9=75|35=A|34=1|49=CNX|52=20120221-15:50:08.919|56=pro5791test|141=Y|98=0|108=30|10=253|
20120221-15:50:09.111 : 8=FIX.4.2|9=69|35=h|34=2|49=CNX|52=20120221-15:50:08.919|56=pro5791test|336=0|340=2|10=243|
20120221-15:50:38.139 : 8=FIX.4.2|9=57|35=0|34=2|49=pro5791test|52=20120221-15:50:38.139|56=CNX|10=164|
20120221-15:50:39.124 : 8=FIX.4.2|9=57|35=0|34=3|49=CNX|52=20120221-15:50:39.073|56=pro5791test|10=163|
20120221-15:50:52.071 : 8=FIX.4.2|9=132|35=D|34=3|49=pro5791test|52=20120221-15:50:52.071|56=CNX|11=O1|21=1|38=100000|40=2|44=1.2|54=1|55=EUR/USD|59=0|60=20120221-15:50:18|10=007|
20120221-15:50:52.177 : 8=FIX.4.2|9=199|35=8|34=4|49=CNX|52=20120221-15:50:52.126|56=pro5791test|37=UNKNOWN|11=O1|41=O1|17=UNKNOWN|20=0|150=8|39=8|103=0|55=EUR/USD|54=1|32=0|151=0|14=0|6=0.0000|60=20120221-15:50:52.126|58=invalid Currency|10=023|
20120221-15:51:22.207 : 8=FIX.4.2|9=57|35=0|34=4|49=pro5791test|52=20120221-15:51:22.207|56=CNX|10=156|
20120221-15:51:22.312 : 8=FIX.4.2|9=57|35=0|34=5|49=CNX|52=20120221-15:51:22.261|56=pro5791test|10=157|
20120221-15:51:52.323 : 8=FIX.4.2|9=57|35=0|34=6|49=CNX|52=20120221-15:51:52.272|56=pro5791test|10=163|
20120221-15:51:52.323 : 8=FIX.4.2|9=57|35=0|34=5|49=pro5791test|52=20120221-15:51:52.323|56=CNX|10=159|
20120221-15:52:00.332 : 8=FIX.4.2|9=57|35=5|34=6|49=pro5791test|52=20120221-15:52:00.332|56=CNX|10=159|
20120221-15:52:00.436 : 8=FIX.4.2|9=57|35=5|34=7|49=CNX|52=20120221-15:52:00.385|56=pro5791test|10=168|
20120221-15:52:01.631 : 8=FIX.4.2|9=88|35=A|34=1|49=pro5791test|52=20120221-15:52:01.631|56=CNX|554=Test1234|98=0|108=30|141=Y|10=057|
20120221-15:52:02.503 : 8=FIX.4.2|9=75|35=A|34=1|49=CNX|52=20120221-15:52:02.453|56=pro5791test|141=Y|98=0|108=30|10=242|
20120221-15:52:02.644 : 8=FIX.4.2|9=69|35=h|34=2|49=CNX|52=20120221-15:52:02.453|56=pro5791test|336=0|340=2|10=232|
20120221-15:52:31.674 : 8=FIX.4.2|9=57|35=0|34=2|49=pro5791test|52=20120221-15:52:31.674|56=CNX|10=163|
20120221-15:52:32.525 : 8=FIX.4.2|9=57|35=0|34=3|49=CNX|52=20120221-15:52:32.474|56=pro5791test|10=163|
20120221-15:53:01.554 : 8=FIX.4.2|9=57|35=0|34=3|49=pro5791test|52=20120221-15:53:01.554|56=CNX|10=159|
20120221-15:53:02.723 : 8=FIX.4.2|9=57|35=0|34=4|49=CNX|52=20120221-15:53:02.672|56=pro5791test|10=162|
20120221-15:53:15.737 : 8=FIX.4.2|9=57|35=5|34=4|49=pro5791test|52=20120221-15:53:15.736|56=CNX|10=172|
20120221-15:53:15.841 : 8=FIX.4.2|9=57|35=5|34=5|49=CNX|52=20120221-15:53:15.790|56=pro5791test|10=173|
20120221-15:53:56.354 : 8=FIX.4.2|9=88|35=A|34=1|49=pro5791test|52=20120221-15:53:56.354|56=CNX|554=Test1234|98=0|108=30|141=Y|10=070|
20120221-15:53:57.225 : 8=FIX.4.2|9=75|35=A|34=1|49=CNX|52=20120221-15:53:57.175|56=pro5791test|141=Y|98=0|108=30|10=254|
20120221-15:53:57.366 : 8=FIX.4.2|9=69|35=h|34=2|49=CNX|52=20120221-15:53:57.175|56=pro5791test|336=0|340=2|10=244|
20120221-15:54:19.389 : 8=FIX.4.2|9=57|35=5|34=2|49=pro5791test|52=20120221-15:54:19.389|56=CNX|10=179|
20120221-15:54:19.493 : 8=FIX.4.2|9=57|35=5|34=3|49=CNX|52=20120221-15:54:19.443|56=pro5791test|10=171|
20120221-15:54:21.650 : 8=FIX.4.2|9=88|35=A|34=1|49=pro5791test|52=20120221-15:54:21.649|56=CNX|554=Test1234|98=0|108=30|141=Y|10=070|
20120221-15:54:22.529 : 8=FIX.4.2|9=75|35=A|34=1|49=CNX|52=20120221-15:54:22.478|56=pro5791test|141=Y|98=0|108=30|10=253|
20120221-15:54:22.670 : 8=FIX.4.2|9=69|35=h|34=2|49=CNX|52=20120221-15:54:22.479|56=pro5791test|336=0|340=2|10=244|
20120221-15:54:51.700 : 8=FIX.4.2|9=57|35=0|34=2|49=pro5791test|52=20120221-15:54:51.700|56=CNX|10=157|
20120221-15:54:52.723 : 8=FIX.4.2|9=57|35=0|34=3|49=CNX|52=20120221-15:54:52.672|56=pro5791test|10=167|
20120221-15:55:21.752 : 8=FIX.4.2|9=57|35=0|34=3|49=pro5791test|52=20120221-15:55:21.752|56=CNX|10=163|
20120221-15:55:22.723 : 8=FIX.4.2|9=57|35=0|34=4|49=CNX|52=20120221-15:55:22.672|56=pro5791test|10=166|
20120221-15:55:31.627 : 8=FIX.4.2|9=132|35=D|34=4|49=pro5791test|52=20120221-15:55:31.627|56=CNX|11=O6|21=1|38=100000|40=2|44=1.2|54=1|55=EUR/USD|59=0|60=20120221-15:55:05|10=023|
20120221-15:55:31.732 : 8=FIX.4.2|9=199|35=8|34=5|49=CNX|52=20120221-15:55:31.680|56=pro5791test|37=UNKNOWN|11=O6|41=O6|17=UNKNOWN|20=0|150=8|39=8|103=0|55=EUR/USD|54=1|32=0|151=0|14=0|6=0.0000|60=20120221-15:55:31.680|58=invalid Currency|10=048|
20120221-15:55:57.852 : 8=FIX.4.2|9=132|35=D|34=5|49=pro5791test|52=20120221-15:55:57.852|56=CNX|11=O6|21=1|38=100000|40=2|44=1.2|54=1|55=EUR/USD|59=0|60=20120221-15:55:38|10=038|
20120221-15:55:57.958 : 8=FIX.4.2|9=199|35=8|34=6|49=CNX|52=20120221-15:55:57.906|56=pro5791test|37=UNKNOWN|11=O6|41=O6|17=UNKNOWN|20=0|150=8|39=8|103=0|55=EUR/USD|54=1|32=0|151=0|14=0|6=0.0000|60=20120221-15:55:57.906|58=invalid Currency|10=067|
20120221-15:56:22.620 : 8=FIX.4.2|9=131|35=D|34=6|49=pro5791test|52=20120221-15:56:22.620|56=CNX|11=O7|21=1|38=10000|40=2|44=1.21|54=1|55=EURUSD|59=0|60=20120221-15:56:01|10=226|
20120221-15:56:22.725 : 8=FIX.4.2|9=196|35=8|34=7|49=CNX|52=20120221-15:56:22.674|56=pro5791test|37=UNKNOWN|11=O7|41=O7|17=UNKNOWN|20=0|150=8|39=8|103=1|55=EURUSD|54=1|32=0|151=0|14=0|6=0.0000|60=20120221-15:56:22.673|58=invalid symbol|10=085|
20120221-15:56:26.729 : 8=FIX.4.2|9=57|35=5|34=7|49=pro5791test|52=20120221-15:56:26.729|56=CNX|10=182|
20120221-15:56:26.833 : 8=FIX.4.2|9=57|35=5|34=8|49=CNX|52=20120221-15:56:26.782|56=pro5791test|10=182|
20120221-16:26:30.827 : 8=FIX.4.2|9=88|35=A|34=1|49=pro5791test|52=20120221-16:26:30.827|56=CNX|554=Test1234|98=0|108=30|141=Y|10=068|
20120221-16:26:31.701 : 8=FIX.4.2|9=75|35=A|34=1|49=CNX|52=20120221-16:26:31.650|56=pro5791test|141=Y|98=0|108=30|10=245|
20120221-16:26:31.842 : 8=FIX.4.2|9=69|35=h|34=2|49=CNX|52=20120221-16:26:31.650|56=pro5791test|336=0|340=2|10=235|
20120221-16:27:00.872 : 8=FIX.4.2|9=57|35=0|34=2|49=pro5791test|52=20120221-16:27:00.872|56=CNX|10=162|
20120221-16:27:01.861 : 8=FIX.4.2|9=57|35=0|34=3|49=CNX|52=20120221-16:27:01.809|56=pro5791test|10=164|
20120221-16:27:23.115 : 8=FIX.4.2|9=134|35=D|34=3|49=pro5791test|52=20120221-16:27:23.115|56=CNX|11=O10|21=1|38=100000|40=2|44=1.31|54=1|55=EUR/USD|59=0|60=20120221-16:26:37|10=114|
20120221-16:27:23.221 : 8=FIX.4.2|9=201|35=8|34=4|49=CNX|52=20120221-16:27:23.169|56=pro5791test|37=UNKNOWN|11=O10|41=O10|17=UNKNOWN|20=0|150=8|39=8|103=0|55=EUR/USD|54=1|32=0|151=0|14=0|6=0.0000|60=20120221-16:27:23.168|58=invalid Currency|10=122|
20120221-16:27:53.250 : 8=FIX.4.2|9=57|35=0|34=4|49=pro5791test|52=20120221-16:27:53.249|56=CNX|10=170|
20120221-16:27:53.261 : 8=FIX.4.2|9=57|35=0|34=5|49=CNX|52=20120221-16:27:53.210|56=pro5791test|10=159|
20120221-16:28:23.290 : 8=FIX.4.2|9=57|35=0|34=5|49=pro5791test|52=20120221-16:28:23.290|56=CNX|10=165|
20120221-16:28:23.393 : 8=FIX.4.2|9=57|35=0|34=6|49=CNX|52=20120221-16:28:23.342|56=pro5791test|10=164|
20120221-16:28:53.423 : 8=FIX.4.2|9=57|35=0|34=6|49=pro5791test|52=20120221-16:28:53.423|56=CNX|10=167|
20120221-16:28:53.460 : 8=FIX.4.2|9=57|35=0|34=7|49=CNX|52=20120221-16:28:53.409|56=pro5791test|10=172|
20120221-16:29:23.461 : 8=FIX.4.2|9=57|35=0|34=8|49=CNX|52=20120221-16:29:23.409|56=pro5791test|10=171|
20120221-16:29:23.461 : 8=FIX.4.2|9=57|35=0|34=7|49=pro5791test|52=20120221-16:29:23.461|56=CNX|10=168|
20120221-16:29:27.466 : 8=FIX.4.2|9=57|35=5|34=8|49=pro5791test|52=20120221-16:29:27.466|56=CNX|10=183|
20120221-16:29:27.569 : 8=FIX.4.2|9=57|35=5|34=9|49=CNX|52=20120221-16:29:27.518|56=pro5791test|10=182|
20120221-17:04:24.390 : 8=FIX.4.2|9=88|35=A|34=1|49=pro5791test|52=20120221-17:04:24.389|56=CNX|554=Test1234|98=0|108=30|141=Y|10=071|
20120221-17:04:25.262 : 8=FIX.4.2|9=75|35=A|34=1|49=CNX|52=20120221-17:04:25.211|56=pro5791test|141=Y|98=0|108=30|10=238|
20120221-17:04:25.404 : 8=FIX.4.2|9=69|35=h|34=2|49=CNX|52=20120221-17:04:25.211|56=pro5791test|336=0|340=2|10=228|
20120221-17:04:26.405 : 8=FIX.4.2|9=57|35=5|34=2|49=pro5791test|52=20120221-17:04:26.405|56=CNX|10=163|
20120221-17:04:26.509 : 8=FIX.4.2|9=57|35=5|34=3|49=CNX|52=20120221-17:04:26.458|56=pro5791test|10=172|
20120221-17:04:44.710 : 8=FIX.4.2|9=88|35=A|34=1|49=pro5791test|52=20120221-17:04:44.710|56=CNX|554=Test1234|98=0|108=30|141=Y|10=061|
20120221-17:04:45.580 : 8=FIX.4.2|9=75|35=A|34=1|49=CNX|52=20120221-17:04:45.529|56=pro5791test|141=Y|98=0|108=30|10=252|
20120221-17:04:45.720 : 8=FIX.4.2|9=69|35=h|34=2|49=CNX|52=20120221-17:04:45.529|56=pro5791test|336=0|340=2|10=242|
20120221-17:04:47.722 : 8=FIX.4.2|9=57|35=5|34=2|49=pro5791test|52=20120221-17:04:47.722|56=CNX|10=168|
20120221-17:04:47.827 : 8=FIX.4.2|9=57|35=5|34=3|49=CNX|52=20120221-17:04:47.776|56=pro5791test|10=178|
20120221-17:06:53.816 : 8=FIX.4.2|9=88|35=A|34=1|49=pro5791test|52=20120221-17:06:53.816|56=CNX|554=Test1234|98=0|108=30|141=Y|10=070|
20120221-17:06:54.685 : 8=FIX.4.2|9=75|35=A|34=1|49=CNX|52=20120221-17:06:54.634|56=pro5791test|141=Y|98=0|108=30|10=251|
20120221-17:06:54.826 : 8=FIX.4.2|9=69|35=h|34=2|49=CNX|52=20120221-17:06:54.634|56=pro5791test|336=0|340=2|10=241|
20120221-17:07:01.833 : 8=FIX.4.2|9=57|35=5|34=2|49=pro5791test|52=20120221-17:07:01.833|56=CNX|10=164|
20120221-17:07:01.937 : 8=FIX.4.2|9=57|35=5|34=3|49=CNX|52=20120221-17:07:01.886|56=pro5791test|10=173|
20120221-18:01:22.943 : 8=FIX.4.2|9=88|35=A|34=1|49=pro5791test|52=20120221-18:01:22.942|56=CNX|554=Test1234|98=0|108=30|141=Y|10=062|
20120221-18:01:23.817 : 8=FIX.4.2|9=75|35=A|34=1|49=CNX|52=20120221-18:01:23.765|56=pro5791test|141=Y|98=0|108=30|10=248|
20120221-18:01:23.960 : 8=FIX.4.2|9=69|35=h|34=2|49=CNX|52=20120221-18:01:23.766|56=pro5791test|336=0|340=2|10=239|
20120221-18:01:51.896 : 8=FIX.4.2|9=139|35=D|34=2|49=pro5791test|52=20120221-18:01:51.896|56=CNX|11=sldkjfldjf|15=EU|21=1|38=100000|40=F|54=1|55=EUR/USD|59=0|60=20120221-18:01:28|10=211|
20120221-18:01:52.002 : 8=FIX.4.2|9=215|35=8|34=3|49=CNX|52=20120221-18:01:51.950|56=pro5791test|37=UNKNOWN|11=sldkjfldjf|41=sldkjfldjf|17=UNKNOWN|20=0|150=8|39=8|103=0|55=EUR/USD|54=1|32=0|151=0|14=0|6=0.0000|60=20120221-18:01:51.950|58=invalid Currency|10=077|
20120221-18:01:59.008 : 8=FIX.4.2|9=57|35=5|34=3|49=pro5791test|52=20120221-18:01:59.008|56=CNX|10=167|
20120221-18:01:59.113 : 8=FIX.4.2|9=57|35=5|34=4|49=CNX|52=20120221-18:01:59.061|56=pro5791test|10=167|
20120221-18:02:51.937 : 8=FIX.4.2|9=88|35=A|34=1|49=pro5791test|52=20120221-18:02:51.937|56=CNX|554=Test1234|98=0|108=30|141=Y|10=069|
20120221-18:02:52.805 : 8=FIX.4.2|9=75|35=A|34=1|49=CNX|52=20120221-18:02:52.754|56=pro5791test|141=Y|98=0|108=30|10=249|
20120221-18:02:52.946 : 8=FIX.4.2|9=69|35=h|34=2|49=CNX|52=20120221-18:02:52.754|56=pro5791test|336=0|340=2|10=239|
20120221-18:03:14.969 : 8=FIX.4.2|9=57|35=5|34=2|49=pro5791test|52=20120221-18:03:14.969|56=CNX|10=175|
20120221-18:03:15.076 : 8=FIX.4.2|9=57|35=5|34=3|49=CNX|52=20120221-18:03:15.023|56=pro5791test|10=158|
20120221-18:03:47.122 : 8=FIX.4.2|9=88|35=A|34=1|49=pro5791test|52=20120221-18:03:47.122|56=CNX|554=Test1234|98=0|108=30|141=Y|10=061|
20120221-18:03:47.990 : 8=FIX.4.2|9=75|35=A|34=1|49=CNX|52=20120221-18:03:47.938|56=pro5791test|141=Y|98=0|108=30|10=002|
20120221-18:03:48.130 : 8=FIX.4.2|9=69|35=h|34=2|49=CNX|52=20120221-18:03:47.938|56=pro5791test|336=0|340=2|10=248|
20120221-18:04:11.466 : 8=FIX.4.2|9=135|35=D|34=2|49=pro5791test|52=20120221-18:04:11.466|56=CNX|11=o900|15=EUR|21=1|38=1000000|40=F|54=1|55=EUR/USD|59=0|60=20120221-18:03:50|10=048|
20120221-18:04:11.572 : 8=FIX.4.2|9=200|35=8|34=3|49=CNX|52=20120221-18:04:11.520|56=pro5791test|37=UNKNOWN|11=o900|41=o900|17=UNKNOWN|20=0|150=8|39=8|103=0|55=EUR/USD|54=1|32=0|151=0|14=0|6=0.0000|60=20120221-18:04:11.520|58=invalid Price|10=179|
20120221-18:04:29.591 : 8=FIX.4.2|9=57|35=5|34=3|49=pro5791test|52=20120221-18:04:29.591|56=CNX|10=174|
20120221-18:04:29.695 : 8=FIX.4.2|9=57|35=5|34=4|49=CNX|52=20120221-18:04:29.643|56=pro5791test|10=173|
20120222-12:08:10.754 : 8=FIX.4.2|9=88|35=A|34=1|49=pro5791test|52=20120222-12:08:10.754|56=CNX|554=Test1234|98=0|108=30|141=Y|10=062|
20120222-12:08:11.685 : 8=FIX.4.2|9=75|35=A|34=1|49=CNX|52=20120222-12:08:11.632|56=pro5791test|141=Y|98=0|108=30|10=240|
20120222-12:08:11.825 : 8=FIX.4.2|9=69|35=h|34=2|49=CNX|52=20120222-12:08:11.633|56=pro5791test|336=0|340=2|10=231|
20120222-12:08:40.855 : 8=FIX.4.2|9=57|35=0|34=2|49=pro5791test|52=20120222-12:08:40.854|56=CNX|10=162|
20120222-12:08:41.702 : 8=FIX.4.2|9=57|35=0|34=3|49=CNX|52=20120222-12:08:41.649|56=pro5791test|10=166|
20120222-12:09:10.732 : 8=FIX.4.2|9=57|35=0|34=3|49=pro5791test|52=20120222-12:09:10.732|56=CNX|10=156|
20120222-12:09:11.701 : 8=FIX.4.2|9=57|35=0|34=4|49=CNX|52=20120222-12:09:11.649|56=pro5791test|10=165|
20120222-12:09:31.880 : 8=FIX.4.2|9=140|35=D|34=4|49=pro5791test|52=20120222-12:09:31.880|56=CNX|11=O2|15=EUR|21=1|38=1000000|40=F|44=1.3|54=1|55=EUR/USD|59=0|60=20120222-12:09:10|10=222|
20120222-12:09:31.993 : 8=FIX.4.2|9=237|35=8|34=5|49=CNX|52=20120222-12:09:31.940|56=pro5791test|37=1106165455|11=O2|41=O2|17=101151_304|20=0|150=0|39=0|1=FXCMPRO579test|55=EUR/USD|54=1|38=1000000|40=F|44=1.3000|15=EUR|32=0|151=1000000|14=0|6=0.0000|60=20120222-12:09:31|110=0|10=078|
20120222-12:09:47.006 : 8=FIX.4.2|9=57|35=5|34=5|49=pro5791test|52=20120222-12:09:47.006|56=CNX|10=167|
20120222-12:09:47.110 : 8=FIX.4.2|9=57|35=5|34=6|49=CNX|52=20120222-12:09:47.058|56=pro5791test|10=175|
