20120221-14:18:34.510 : 8=FIXT.1.1|9=92|35=A|34=1|49=GFS|52=20120221-14:18:34.510|56=BAXTERtest|95=2|96=5x|98=0|108=30|141=Y|1137=7|10=080|
20120221-14:18:34.575 : 8=FIXT.1.1|9=81|35=A|34=1|49=BAXTERtest|52=20120221-14:18:34.557|56=GFS|98=0|108=30|141=Y|1137=7|10=033|
20120221-14:18:34.613 : 8=FIXT.1.1|9=205|35=8|34=2|49=BAXTERtest|52=20120221-14:18:34.595|56=GFS|6=0|11=O2|14=0|17=201202205947376|21=2|37=884240616|38=10000|39=C|40=2|41=O2|44=18|54=1|55=USD/CZK|59=0|60=20120220-21:00:01.114|150=C|151=0|167=FOR|10=214|
20120221-14:19:04.624 : 8=FIXT.1.1|9=56|35=0|34=3|49=BAXTERtest|52=20120221-14:19:04.606|56=GFS|10=134|
20120221-14:19:04.625 : 8=FIXT.1.1|9=56|35=0|34=2|49=GFS|52=20120221-14:19:04.625|56=BAXTERtest|10=134|
20120221-14:19:05.373 : 8=FIXT.1.1|9=142|35=D|34=3|49=GFS|52=20120221-14:19:05.373|56=BAXTERtest|1=CAPITALK|11=O1|21=2|38=100000|40=2|44=1.3|54=1|55=EUR/USD|59=0|60=20120221-14:18:45|10=178|
20120221-14:19:05.489 : 8=FIXT.1.1|9=120|35=3|34=4|49=BAXTERtest|52=20120221-14:19:05.471|56=GFS|45=3|58=Tag not defined for this message type|371=1|372=D|373=2|10=015|
20120221-14:19:19.502 : 8=FIXT.1.1|9=56|35=5|34=4|49=GFS|52=20120221-14:19:19.501|56=BAXTERtest|10=140|
20120221-14:19:19.539 : 8=FIXT.1.1|9=63|35=5|34=5|49=BAXTERtest|52=20120221-14:19:19.519|56=GFS|1128=7|10=213|
20120221-14:20:10.561 : 8=FIXT.1.1|9=92|35=A|34=1|49=GFS|52=20120221-14:20:10.561|56=BAXTERtest|95=2|96=5x|98=0|108=30|141=Y|1137=7|10=073|
20120221-14:20:10.615 : 8=FIXT.1.1|9=81|35=A|34=1|49=BAXTERtest|52=20120221-14:20:10.596|56=GFS|98=0|108=30|141=Y|1137=7|10=023|
20120221-14:20:39.774 : 8=FIXT.1.1|9=131|35=D|34=2|49=GFS|52=20120221-14:20:39.774|56=BAXTERtest|11=O2|21=2|38=100000|40=2|44=1.3|54=1|55=EUR/USD|59=0|60=20120221-14:20:22|10=240|
20120221-14:20:39.825 : 8=FIXT.1.1|9=237|35=8|34=2|49=BAXTERtest|52=20120221-14:20:39.806|56=GFS|6=0|11=O2|14=0|17=201202215947859|21=2|31=0|32=0|37=NONE|38=100000|39=A|40=2|44=1.3|54=1|55=EUR/USD|59=0|60=20120221-14:20:39.799|126=20120221-21:00:00.000|150=A|151=100000|167=FOR|10=005|
20120221-14:20:39.908 : 8=FIXT.1.1|9=242|35=8|34=3|49=BAXTERtest|52=20120221-14:20:39.889|56=GFS|6=0|11=O2|14=0|17=201202215947860|21=2|31=0|32=0|37=884240946|38=100000|39=0|40=2|44=1.3|54=1|55=EUR/USD|59=0|60=20120221-14:20:39.886|126=20120221-21:00:00.000|150=0|151=100000|167=FOR|10=141|
20120221-14:21:09.939 : 8=FIXT.1.1|9=56|35=0|34=3|49=GFS|52=20120221-14:21:09.939|56=BAXTERtest|10=141|
20120221-14:21:09.974 : 8=FIXT.1.1|9=56|35=0|34=4|49=BAXTERtest|52=20120221-14:21:09.956|56=GFS|10=141|
20120221-14:21:39.001 : 8=FIXT.1.1|9=56|35=0|34=4|49=GFS|52=20120221-14:21:39.001|56=BAXTERtest|10=125|
20120221-14:21:40.624 : 8=FIXT.1.1|9=56|35=0|34=5|49=BAXTERtest|52=20120221-14:21:40.606|56=GFS|10=129|
20120221-14:22:09.653 : 8=FIXT.1.1|9=56|35=0|34=5|49=GFS|52=20120221-14:22:09.653|56=BAXTERtest|10=137|
20120221-14:22:11.624 : 8=FIXT.1.1|9=56|35=0|34=6|49=BAXTERtest|52=20120221-14:22:11.606|56=GFS|10=129|
20120221-14:22:26.639 : 8=FIXT.1.1|9=56|35=5|34=6|49=GFS|52=20120221-14:22:26.639|56=BAXTERtest|10=146|
20120221-14:22:26.677 : 8=FIXT.1.1|9=63|35=5|34=7|49=BAXTERtest|52=20120221-14:22:26.657|56=GFS|1128=7|10=210|
20120222-12:09:53.255 : 8=FIXT.1.1|9=92|35=A|34=1|49=GFS|52=20120222-12:09:53.254|56=BAXTERtest|95=2|96=5x|98=0|108=30|141=Y|1137=7|10=085|
20120222-12:09:53.310 : 8=FIXT.1.1|9=81|35=A|34=1|49=BAXTERtest|52=20120222-12:09:53.292|56=GFS|98=0|108=30|141=Y|1137=7|10=029|
20120222-12:09:53.340 : 8=FIXT.1.1|9=207|35=8|34=2|49=BAXTERtest|52=20120222-12:09:53.322|56=GFS|6=0|11=O2|14=0|17=201202215947861|21=2|37=884240946|38=100000|39=C|40=2|41=O2|44=1.3|54=1|55=EUR/USD|59=0|60=20120221-21:00:00.501|150=C|151=0|167=FOR|10=047|
20120222-12:10:23.371 : 8=FIXT.1.1|9=56|35=0|34=2|49=GFS|52=20120222-12:10:23.371|56=BAXTERtest|10=123|
20120222-12:10:23.407 : 8=FIXT.1.1|9=56|35=0|34=3|49=BAXTERtest|52=20120222-12:10:23.389|56=GFS|10=133|
20120222-12:10:53.437 : 8=FIXT.1.1|9=56|35=0|34=3|49=GFS|52=20120222-12:10:53.437|56=BAXTERtest|10=130|
20120222-12:10:53.473 : 8=FIXT.1.1|9=56|35=0|34=4|49=BAXTERtest|52=20120222-12:10:53.455|56=GFS|10=131|
20120222-12:11:10.250 : 8=FIXT.1.1|9=129|35=D|34=4|49=GFS|52=20120222-12:11:10.250|56=BAXTERtest|11=O2|21=|38=10000|40=2|44=1.3|54=1|55=EUR/USD|59=0|60=20120222-12:10:42|10=128|
20120222-12:11:10.286 : 8=FIXT.1.1|9=113|35=3|34=5|49=BAXTERtest|52=20120222-12:11:10.269|56=GFS|45=4|58=Tag specified without a value|371=21|372=D|373=4|10=119|
20120222-12:11:24.301 : 8=FIXT.1.1|9=56|35=5|34=5|49=GFS|52=20120222-12:11:24.301|56=BAXTERtest|10=126|
20120222-12:11:24.336 : 8=FIXT.1.1|9=63|35=5|34=6|49=BAXTERtest|52=20120222-12:11:24.319|56=GFS|1128=7|10=199|
20120222-12:14:45.138 : 8=FIXT.1.1|9=92|35=A|34=1|49=GFS|52=20120222-12:14:45.137|56=BAXTERtest|95=2|96=5x|98=0|108=30|141=Y|1137=7|10=082|
20120222-12:14:45.191 : 8=FIXT.1.1|9=81|35=A|34=1|49=BAXTERtest|52=20120222-12:14:45.172|56=GFS|98=0|108=30|141=Y|1137=7|10=023|
20120222-12:15:07.886 : 8=FIXT.1.1|9=131|35=D|34=2|49=GFS|52=20120222-12:15:07.886|56=BAXTERtest|11=O3|21=2|38=100000|40=2|44=1.3|54=1|55=EUR/USD|59=0|60=20120222-12:14:47|10=252|
20120222-12:15:07.937 : 8=FIXT.1.1|9=237|35=8|34=2|49=BAXTERtest|52=20120222-12:15:07.919|56=GFS|6=0|11=O3|14=0|17=201202225948182|21=2|31=0|32=0|37=NONE|38=100000|39=A|40=2|44=1.3|54=1|55=EUR/USD|59=0|60=20120222-12:15:07.917|126=20120222-21:00:00.000|150=A|151=100000|167=FOR|10=247|
20120222-12:15:08.082 : 8=FIXT.1.1|9=242|35=8|34=3|49=BAXTERtest|52=20120222-12:15:08.064|56=GFS|6=0|11=O3|14=0|17=201202225948183|21=2|31=0|32=0|37=884241051|38=100000|39=0|40=2|44=1.3|54=1|55=EUR/USD|59=0|60=20120222-12:15:08.062|126=20120222-21:00:00.000|150=0|151=100000|167=FOR|10=100|
20120222-12:15:37.106 : 8=FIXT.1.1|9=56|35=0|34=3|49=GFS|52=20120222-12:15:37.106|56=BAXTERtest|10=130|
20120222-12:15:38.624 : 8=FIXT.1.1|9=56|35=0|34=4|49=BAXTERtest|52=20120222-12:15:38.606|56=GFS|10=137|
20120222-12:16:07.654 : 8=FIXT.1.1|9=56|35=0|34=4|49=GFS|52=20120222-12:16:07.654|56=BAXTERtest|10=137|
20120222-12:16:09.623 : 8=FIXT.1.1|9=56|35=0|34=5|49=BAXTERtest|52=20120222-12:16:09.606|56=GFS|10=137|
20120222-12:16:37.652 : 8=FIXT.1.1|9=56|35=0|34=5|49=GFS|52=20120222-12:16:37.652|56=BAXTERtest|10=139|
20120222-12:16:40.623 : 8=FIXT.1.1|9=56|35=0|34=6|49=BAXTERtest|52=20120222-12:16:40.605|56=GFS|10=132|
20120222-12:17:07.651 : 8=FIXT.1.1|9=56|35=0|34=6|49=GFS|52=20120222-12:17:07.651|56=BAXTERtest|10=137|
20120222-12:17:10.623 : 8=FIXT.1.1|9=56|35=0|34=7|49=BAXTERtest|52=20120222-12:17:10.606|56=GFS|10=132|
20120222-12:17:37.651 : 8=FIXT.1.1|9=56|35=0|34=7|49=GFS|52=20120222-12:17:37.651|56=BAXTERtest|10=141|
20120222-12:17:41.623 : 8=FIXT.1.1|9=56|35=0|34=8|49=BAXTERtest|52=20120222-12:17:41.606|56=GFS|10=137|
20120222-12:18:07.650 : 8=FIXT.1.1|9=56|35=0|34=8|49=GFS|52=20120222-12:18:07.650|56=BAXTERtest|10=139|
20120222-12:18:12.623 : 8=FIXT.1.1|9=56|35=0|34=9|49=BAXTERtest|52=20120222-12:18:12.606|56=GFS|10=137|
20120222-12:18:37.649 : 8=FIXT.1.1|9=56|35=0|34=9|49=GFS|52=20120222-12:18:37.649|56=BAXTERtest|10=151|
20120222-12:18:43.623 : 8=FIXT.1.1|9=57|35=0|34=10|49=BAXTERtest|52=20120222-12:18:43.606|56=GFS|10=182|
20120222-12:19:07.648 : 8=FIXT.1.1|9=57|35=0|34=10|49=GFS|52=20120222-12:19:07.648|56=BAXTERtest|10=189|
20120222-12:19:14.623 : 8=FIXT.1.1|9=57|35=0|34=11|49=BAXTERtest|52=20120222-12:19:14.606|56=GFS|10=182|
20120222-12:19:37.647 : 8=FIXT.1.1|9=57|35=0|34=11|49=GFS|52=20120222-12:19:37.647|56=BAXTERtest|10=192|
20120222-12:19:45.624 : 8=FIXT.1.1|9=57|35=0|34=12|49=BAXTERtest|52=20120222-12:19:45.606|56=GFS|10=187|
20120222-12:20:07.646 : 8=FIXT.1.1|9=57|35=0|34=12|49=GFS|52=20120222-12:20:07.646|56=BAXTERtest|10=181|
20120222-12:20:16.623 : 8=FIXT.1.1|9=57|35=0|34=13|49=BAXTERtest|52=20120222-12:20:16.606|56=GFS|10=178|
20120222-12:20:37.645 : 8=FIXT.1.1|9=57|35=0|34=13|49=GFS|52=20120222-12:20:37.645|56=BAXTERtest|10=184|
20120222-12:20:47.623 : 8=FIXT.1.1|9=57|35=0|34=14|49=BAXTERtest|52=20120222-12:20:47.606|56=GFS|10=183|
20120222-12:21:07.644 : 8=FIXT.1.1|9=57|35=0|34=14|49=GFS|52=20120222-12:21:07.644|56=BAXTERtest|10=182|
20120222-12:21:18.623 : 8=FIXT.1.1|9=57|35=0|34=15|49=BAXTERtest|52=20120222-12:21:18.606|56=GFS|10=183|
20120222-12:21:37.643 : 8=FIXT.1.1|9=57|35=0|34=15|49=GFS|52=20120222-12:21:37.643|56=BAXTERtest|10=185|
20120222-12:21:49.624 : 8=FIXT.1.1|9=57|35=0|34=16|49=BAXTERtest|52=20120222-12:21:49.606|56=GFS|10=188|
20120222-12:22:07.642 : 8=FIXT.1.1|9=57|35=0|34=16|49=GFS|52=20120222-12:22:07.642|56=BAXTERtest|10=183|
20120222-12:22:20.623 : 8=FIXT.1.1|9=57|35=0|34=17|49=BAXTERtest|52=20120222-12:22:20.606|56=GFS|10=179|
20120222-12:22:37.641 : 8=FIXT.1.1|9=57|35=0|34=17|49=GFS|52=20120222-12:22:37.640|56=BAXTERtest|10=185|
20120222-12:22:51.624 : 8=FIXT.1.1|9=57|35=0|34=18|49=BAXTERtest|52=20120222-12:22:51.606|56=GFS|10=184|
20120222-12:23:07.640 : 8=FIXT.1.1|9=57|35=0|34=18|49=GFS|52=20120222-12:23:07.640|56=BAXTERtest|10=184|
20120222-12:23:22.623 : 8=FIXT.1.1|9=57|35=0|34=19|49=BAXTERtest|52=20120222-12:23:22.606|56=GFS|10=184|
20120222-12:23:37.639 : 8=FIXT.1.1|9=57|35=0|34=19|49=GFS|52=20120222-12:23:37.639|56=BAXTERtest|10=196|
20120222-12:23:53.623 : 8=FIXT.1.1|9=57|35=0|34=20|49=BAXTERtest|52=20120222-12:23:53.606|56=GFS|10=180|
20120222-12:24:07.638 : 8=FIXT.1.1|9=57|35=0|34=20|49=GFS|52=20120222-12:24:07.638|56=BAXTERtest|10=185|
20120222-12:24:24.623 : 8=FIXT.1.1|9=57|35=0|34=21|49=BAXTERtest|52=20120222-12:24:24.606|56=GFS|10=180|
20120222-12:24:37.637 : 8=FIXT.1.1|9=57|35=0|34=21|49=GFS|52=20120222-12:24:37.637|56=BAXTERtest|10=188|
20120222-12:24:55.624 : 8=FIXT.1.1|9=57|35=0|34=22|49=BAXTERtest|52=20120222-12:24:55.606|56=GFS|10=185|
20120222-12:25:07.636 : 8=FIXT.1.1|9=57|35=0|34=22|49=GFS|52=20120222-12:25:07.636|56=BAXTERtest|10=186|
20120222-12:25:26.623 : 8=FIXT.1.1|9=57|35=0|34=23|49=BAXTERtest|52=20120222-12:25:26.606|56=GFS|10=185|
20120222-12:25:37.635 : 8=FIXT.1.1|9=57|35=0|34=23|49=GFS|52=20120222-12:25:37.635|56=BAXTERtest|10=189|
20120222-12:25:57.623 : 8=FIXT.1.1|9=57|35=0|34=24|49=BAXTERtest|52=20120222-12:25:57.606|56=GFS|10=190|
20120222-12:26:07.634 : 8=FIXT.1.1|9=57|35=0|34=24|49=GFS|52=20120222-12:26:07.634|56=BAXTERtest|10=187|
20120222-12:26:28.623 : 8=FIXT.1.1|9=57|35=0|34=25|49=BAXTERtest|52=20120222-12:26:28.606|56=GFS|10=190|
20120222-12:26:37.633 : 8=FIXT.1.1|9=57|35=0|34=25|49=GFS|52=20120222-12:26:37.632|56=BAXTERtest|10=189|
20120222-12:26:59.624 : 8=FIXT.1.1|9=57|35=0|34=26|49=BAXTERtest|52=20120222-12:26:59.606|56=GFS|10=195|
20120222-12:27:07.632 : 8=FIXT.1.1|9=57|35=0|34=26|49=GFS|52=20120222-12:27:07.632|56=BAXTERtest|10=188|
20120222-12:27:30.623 : 8=FIXT.1.1|9=57|35=0|34=27|49=BAXTERtest|52=20120222-12:27:30.606|56=GFS|10=186|
20120222-12:27:37.631 : 8=FIXT.1.1|9=57|35=0|34=27|49=GFS|52=20120222-12:27:37.631|56=BAXTERtest|10=191|
20120222-12:28:01.624 : 8=FIXT.1.1|9=57|35=0|34=28|49=BAXTERtest|52=20120222-12:28:01.606|56=GFS|10=186|
20120222-12:28:07.630 : 8=FIXT.1.1|9=57|35=0|34=28|49=GFS|52=20120222-12:28:07.630|56=BAXTERtest|10=189|
20120222-12:28:32.623 : 8=FIXT.1.1|9=57|35=0|34=29|49=BAXTERtest|52=20120222-12:28:32.606|56=GFS|10=191|
20120222-12:28:37.628 : 8=FIXT.1.1|9=57|35=0|34=29|49=GFS|52=20120222-12:28:37.628|56=BAXTERtest|10=200|
20120222-12:29:01.653 : 8=FIXT.1.1|9=57|35=5|34=30|49=GFS|52=20120222-12:29:01.653|56=BAXTERtest|10=187|
20120222-12:29:01.689 : 8=FIXT.1.1|9=64|35=5|34=30|49=BAXTERtest|52=20120222-12:29:01.670|56=GFS|1128=7|10=249|
