8=FIX.4.3|9=118|35=A|34=1|49=CAPITALKTEST-CCG-1|52=20120221-13:51:43.024|56=FXALL|553=apitest@capitalk|554=fxall123|98=0|108=30|141=Y|10=140|8=FIX.4.3|9=66|35=0|34=2|49=CAPITALKTEST-CCG-1|52=20120221-13:52:13.737|56=FXALL|10=042|8=FIX.4.3|9=156|35=D|34=3|49=CAPITALKTEST-CCG-1|52=20120221-13:52:22.658|56=FXALL|1=CAPITALK_BAX|11=O3|21=2|38=100000|40=2|44=1.3|54=1|55=EUR/USD|59=0|60=20120221-13:51:53|10=146|8=FIX.4.3|9=66|35=0|34=4|49=CAPITALKTEST-CCG-1|52=20120221-13:52:52.762|56=FXALL|10=045|8=FIX.4.3|9=66|35=5|34=5|49=CAPITALKTEST-CCG-1|52=20120221-13:53:02.772|56=FXALL|10=048|