8=FIX.4.2|9=88|35=A|34=1|49=pro5791test|52=20120222-12:08:10.754|56=CNX|554=Test1234|98=0|108=30|141=Y|10=062|8=FIX.4.2|9=57|35=0|34=2|49=pro5791test|52=20120222-12:08:40.854|56=CNX|10=162|8=FIX.4.2|9=57|35=0|34=3|49=pro5791test|52=20120222-12:09:10.732|56=CNX|10=156|8=FIX.4.2|9=140|35=D|34=4|49=pro5791test|52=20120222-12:09:31.880|56=CNX|11=O2|15=EUR|21=1|38=1000000|40=F|44=1.3|54=1|55=EUR/USD|59=0|60=20120222-12:09:10|10=222|8=FIX.4.2|9=57|35=5|34=5|49=pro5791test|52=20120222-12:09:47.006|56=CNX|10=167|