8=FIXT.1.1|9=92|35=A|34=1|49=GFS|52=20120222-12:14:45.137|56=BAXTERtest|95=2|96=5x|98=0|108=30|141=Y|1137=7|10=082|8=FIXT.1.1|9=131|35=D|34=2|49=GFS|52=20120222-12:15:07.886|56=BAXTERtest|11=O3|21=2|38=100000|40=2|44=1.3|54=1|55=EUR/USD|59=0|60=20120222-12:14:47|10=252|8=FIXT.1.1|9=56|35=0|34=3|49=GFS|52=20120222-12:15:37.106|56=BAXTERtest|10=130|8=FIXT.1.1|9=56|35=0|34=4|49=GFS|52=20120222-12:16:07.654|56=BAXTERtest|10=137|8=FIXT.1.1|9=56|35=0|34=5|49=GFS|52=20120222-12:16:37.652|56=BAXTERtest|10=139|8=FIXT.1.1|9=56|35=0|34=6|49=GFS|52=20120222-12:17:07.651|56=BAXTERtest|10=137|8=FIXT.1.1|9=56|35=0|34=7|49=GFS|52=20120222-12:17:37.651|56=BAXTERtest|10=141|8=FIXT.1.1|9=56|35=0|34=8|49=GFS|52=20120222-12:18:07.650|56=BAXTERtest|10=139|8=FIXT.1.1|9=56|35=0|34=9|49=GFS|52=20120222-12:18:37.649|56=BAXTERtest|10=151|8=FIXT.1.1|9=57|35=0|34=10|49=GFS|52=20120222-12:19:07.648|56=BAXTERtest|10=189|8=FIXT.1.1|9=57|35=0|34=11|49=GFS|52=20120222-12:19:37.647|56=BAXTERtest|10=192|8=FIXT.1.1|9=57|35=0|34=12|49=GFS|52=20120222-12:20:07.646|56=BAXTERtest|10=181|8=FIXT.1.1|9=57|35=0|34=13|49=GFS|52=20120222-12:20:37.645|56=BAXTERtest|10=184|8=FIXT.1.1|9=57|35=0|34=14|49=GFS|52=20120222-12:21:07.644|56=BAXTERtest|10=182|8=FIXT.1.1|9=57|35=0|34=15|49=GFS|52=20120222-12:21:37.643|56=BAXTERtest|10=185|8=FIXT.1.1|9=57|35=0|34=16|49=GFS|52=20120222-12:22:07.642|56=BAXTERtest|10=183|8=FIXT.1.1|9=57|35=0|34=17|49=GFS|52=20120222-12:22:37.640|56=BAXTERtest|10=185|8=FIXT.1.1|9=57|35=0|34=18|49=GFS|52=20120222-12:23:07.640|56=BAXTERtest|10=184|8=FIXT.1.1|9=57|35=0|34=19|49=GFS|52=20120222-12:23:37.639|56=BAXTERtest|10=196|8=FIXT.1.1|9=57|35=0|34=20|49=GFS|52=20120222-12:24:07.638|56=BAXTERtest|10=185|8=FIXT.1.1|9=57|35=0|34=21|49=GFS|52=20120222-12:24:37.637|56=BAXTERtest|10=188|8=FIXT.1.1|9=57|35=0|34=22|49=GFS|52=20120222-12:25:07.636|56=BAXTERtest|10=186|8=FIXT.1.1|9=57|35=0|34=23|49=GFS|52=20120222-12:25:37.635|56=BAXTERtest|10=189|8=FIXT.1.1|9=57|35=0|34=24|49=GFS|52=20120222-12:26:07.634|56=BAXTERtest|10=187|8=FIXT.1.1|9=57|35=0|34=25|49=GFS|52=20120222-12:26:37.632|56=BAXTERtest|10=189|8=FIXT.1.1|9=57|35=0|34=26|49=GFS|52=20120222-12:27:07.632|56=BAXTERtest|10=188|8=FIXT.1.1|9=57|35=0|34=27|49=GFS|52=20120222-12:27:37.631|56=BAXTERtest|10=191|8=FIXT.1.1|9=57|35=0|34=28|49=GFS|52=20120222-12:28:07.630|56=BAXTERtest|10=189|8=FIXT.1.1|9=57|35=0|34=29|49=GFS|52=20120222-12:28:37.628|56=BAXTERtest|10=200|8=FIXT.1.1|9=57|35=5|34=30|49=GFS|52=20120222-12:29:01.653|56=BAXTERtest|10=187|